{
    "_format": "hh-sol-artifact-1",
    "contractName": "Dancer",
    "sourceName": "contracts/Dancer.sol",
    "abi": [
        {
            "inputs": [
                {
                    "internalType": "address",
                    "name": "_dancer",
                    "type": "address"
                }
            ],
            "stateMutability": "nonpayable",
            "type": "constructor"
        },
        {
            "anonymous": false,
            "inputs": [
                {
                    "indexed": false,
                    "internalType": "address",
                    "name": "user",
                    "type": "address"
                },
                {
                    "indexed": false,
                    "internalType": "uint256",
                    "name": "amount",
                    "type": "uint256"
                },
                {
                    "indexed": false,
                    "internalType": "uint256",
                    "name": "cost",
                    "type": "uint256"
                }
            ],
            "name": "CreditsAdded",
            "type": "event"
        },
        {
            "anonymous": false,
            "inputs": [
                {
                    "indexed": false,
                    "internalType": "address",
                    "name": "creditOwner",
                    "type": "address"
                },
                {
                    "indexed": false,
                    "internalType": "uint256",
                    "name": "creditsUsed",
                    "type": "uint256"
                },
                {
                    "indexed": false,
                    "internalType": "uint256",
                    "name": "pointsEarned",
                    "type": "uint256"
                }
            ],
            "name": "DancePerformed",
            "type": "event"
        },
        {
            "inputs": [],
            "name": "CLICK_VALUE",
            "outputs": [
                {
                    "internalType": "uint256",
                    "name": "",
                    "type": "uint256"
                }
            ],
            "stateMutability": "view",
            "type": "function"
        },
        {
            "inputs": [],
            "name": "CREDIT_PRICE",
            "outputs": [
                {
                    "internalType": "uint256",
                    "name": "",
                    "type": "uint256"
                }
            ],
            "stateMutability": "view",
            "type": "function"
        },
        {
            "inputs": [],
            "name": "POINTS_PER_DANCE",
            "outputs": [
                {
                    "internalType": "uint256",
                    "name": "",
                    "type": "uint256"
                }
            ],
            "stateMutability": "view",
            "type": "function"
        },
        {
            "inputs": [
                {
                    "internalType": "address",
                    "name": "_user",
                    "type": "address"
                },
                {
                    "internalType": "uint256",
                    "name": "_amount",
                    "type": "uint256"
                }
            ],
            "name": "buyCredits",
            "outputs": [],
            "stateMutability": "payable",
            "type": "function"
        },
        {
            "inputs": [
                {
                    "internalType": "address",
                    "name": "_user",
                    "type": "address"
                }
            ],
            "name": "checkCredits",
            "outputs": [
                {
                    "internalType": "uint256",
                    "name": "",
                    "type": "uint256"
                }
            ],
            "stateMutability": "view",
            "type": "function"
        },
        {
            "inputs": [
                {
                    "internalType": "address",
                    "name": "_user",
                    "type": "address"
                }
            ],
            "name": "checkPoints",
            "outputs": [
                {
                    "internalType": "uint256",
                    "name": "",
                    "type": "uint256"
                }
            ],
            "stateMutability": "view",
            "type": "function"
        },
        {
            "inputs": [
                {
                    "internalType": "address",
                    "name": "",
                    "type": "address"
                }
            ],
            "name": "credits",
            "outputs": [
                {
                    "internalType": "uint256",
                    "name": "",
                    "type": "uint256"
                }
            ],
            "stateMutability": "view",
            "type": "function"
        },
        {
            "inputs": [
                {
                    "internalType": "address",
                    "name": "_creditOwner",
                    "type": "address"
                }
            ],
            "name": "dance",
            "outputs": [],
            "stateMutability": "nonpayable",
            "type": "function"
        },
        {
            "inputs": [],
            "name": "dancer",
            "outputs": [
                {
                    "internalType": "address",
                    "name": "",
                    "type": "address"
                }
            ],
            "stateMutability": "view",
            "type": "function"
        },
        {
            "inputs": [
                {
                    "internalType": "address",
                    "name": "",
                    "type": "address"
                }
            ],
            "name": "points",
            "outputs": [
                {
                    "internalType": "uint256",
                    "name": "",
                    "type": "uint256"
                }
            ],
            "stateMutability": "view",
            "type": "function"
        }
    ],
    "bytecode": "0x60a060405234801561001057600080fd5b50604051610bcd380380610bcd833981810160405281019061003291906100cf565b8073ffffffffffffffffffffffffffffffffffffffff1660808173ffffffffffffffffffffffffffffffffffffffff1681525050506100fc565b600080fd5b600073ffffffffffffffffffffffffffffffffffffffff82169050919050565b600061009c82610071565b9050919050565b6100ac81610091565b81146100b757600080fd5b50565b6000815190506100c9816100a3565b92915050565b6000602082840312156100e5576100e461006c565b5b60006100f3848285016100ba565b91505092915050565b608051610aaf61011e6000396000818161027d01526104a70152610aaf6000f3fe6080604052600436106100915760003560e01c8063a9c2c50e11610059578063a9c2c50e146101a3578063b3abc49f146101ce578063c5efaae8146101f9578063e4bf8c0314610215578063fe5ff4681461023e57610091565b80630c8b42fc146100965780632033c746146100c157806334e0ee2e146100fe578063358b81661461013b5780639fc0181614610178575b600080fd5b3480156100a257600080fd5b506100ab61027b565b6040516100b891906106fb565b60405180910390f35b3480156100cd57600080fd5b506100e860048036038101906100e39190610747565b61029f565b6040516100f5919061078d565b60405180910390f35b34801561010a57600080fd5b5061012560048036038101906101209190610747565b6102e7565b604051610132919061078d565b60405180910390f35b34801561014757600080fd5b50610162600480360381019061015d9190610747565b610330565b60405161016f919061078d565b60405180910390f35b34801561018457600080fd5b5061018d610348565b60405161019a919061078d565b60405180910390f35b3480156101af57600080fd5b506101b8610352565b6040516101c5919061078d565b60405180910390f35b3480156101da57600080fd5b506101e3610357565b6040516101f0919061078d565b60405180910390f35b610213600480360381019061020e91906107d4565b61035c565b005b34801561022157600080fd5b5061023c60048036038101906102379190610747565b6104a5565b005b34801561024a57600080fd5b5061026560048036038101906102609190610747565b6106a2565b604051610272919061078d565b60405180910390f35b7f000000000000000000000000000000000000000000000000000000000000000081565b60008060008373ffffffffffffffffffffffffffffffffffffffff1673ffffffffffffffffffffffffffffffffffffffff168152602001908152602001600020549050919050565b6000600160008373ffffffffffffffffffffffffffffffffffffffff1673ffffffffffffffffffffffffffffffffffffffff168152602001908152602001600020549050919050565b60016020528060005260406000206000915090505481565b655af3107a400081565b600181565b600a81565b6000655af3107a4000826103709190610843565b9050803410156103b5576040517f08c379a00000000000000000000000000000000000000000000000000000000081526004016103ac906108e2565b60405180910390fd5b816000808573ffffffffffffffffffffffffffffffffffffffff1673ffffffffffffffffffffffffffffffffffffffff16815260200190815260200160002060008282546104039190610902565b9250508190555080341115610465573373ffffffffffffffffffffffffffffffffffffffff166108fc82346104389190610936565b9081150290604051600060405180830381858888f19350505050158015610463573d6000803e3d6000fd5b505b7fd305de00ff844187684de9e8a15602e44d863b097729193edc95b2c53eff7c408383836040516104989392919061096a565b60405180910390a1505050565b7f000000000000000000000000000000000000000000000000000000000000000073ffffffffffffffffffffffffffffffffffffffff163373ffffffffffffffffffffffffffffffffffffffff1614610533576040517f08c379a000000000000000000000000000000000000000000000000000000000815260040161052a906109ed565b60405180910390fd5b60016000808373ffffffffffffffffffffffffffffffffffffffff1673ffffffffffffffffffffffffffffffffffffffff1681526020019081526020016000205410156105b5576040517f08c379a00000000000000000000000000000000000000000000000000000000081526004016105ac90610a59565b60405180910390fd5b60016000808373ffffffffffffffffffffffffffffffffffffffff1673ffffffffffffffffffffffffffffffffffffffff16815260200190815260200160002060008282546106049190610936565b92505081905550600a600160008373ffffffffffffffffffffffffffffffffffffffff1673ffffffffffffffffffffffffffffffffffffffff168152602001908152602001600020600082825461065b9190610902565b925050819055507f71dd09f0c889effafc6aaf6fb150bf7dd9343c0fcc077b29ab927a7db7c3dd69816001600a6040516106979392919061096a565b60405180910390a150565b60006020528060005260406000206000915090505481565b600073ffffffffffffffffffffffffffffffffffffffff82169050919050565b60006106e5826106ba565b9050919050565b6106f5816106da565b82525050565b600060208201905061071060008301846106ec565b92915050565b600080fd5b610724816106da565b811461072f57600080fd5b50565b6000813590506107418161071b565b92915050565b60006020828403121561075d5761075c610716565b5b600061076b84828501610732565b91505092915050565b6000819050919050565b61078781610774565b82525050565b60006020820190506107a2600083018461077e565b92915050565b6107b181610774565b81146107bc57600080fd5b50565b6000813590506107ce816107a8565b92915050565b600080604083850312156107eb576107ea610716565b5b60006107f985828601610732565b925050602061080a858286016107bf565b9150509250929050565b7f4e487b7100000000000000000000000000000000000000000000000000000000600052601160045260246000fd5b600061084e82610774565b915061085983610774565b925082820261086781610774565b9150828204841483151761087e5761087d610814565b5b5092915050565b600082825260208201905092915050565b7f496e73756666696369656e74207061796d656e74000000000000000000000000600082015250565b60006108cc601483610885565b91506108d782610896565b602082019050919050565b600060208201905081810360008301526108fb816108bf565b9050919050565b600061090d82610774565b915061091883610774565b92508282019050808211156109305761092f610814565b5b92915050565b600061094182610774565b915061094c83610774565b925082820390508181111561096457610963610814565b5b92915050565b600060608201905061097f60008301866106ec565b61098c602083018561077e565b610999604083018461077e565b949350505050565b7f4f6e6c79207468652064616e6365722063616e2064616e636500000000000000600082015250565b60006109d7601983610885565b91506109e2826109a1565b602082019050919050565b60006020820190508181036000830152610a06816109ca565b9050919050565b7f496e73756666696369656e742063726564697473000000000000000000000000600082015250565b6000610a43601483610885565b9150610a4e82610a0d565b602082019050919050565b60006020820190508181036000830152610a7281610a36565b905091905056fea264697066735822122017fb300e4b4e684c7b60f0c36e8619fd2189d4e16ca09829da2ff65d62d64b6064736f6c63430008170033",
    "linkReferences": {},
    "deployedLinkReferences": {}
}